{
  "_format": "hh-sol-artifact-1",
  "contractName": "MetaNodeStake",
  "sourceName": "contracts/MetaNodeStake.sol",
  "abi": [
    {
      "inputs": [
        {
          "internalType": "address",
          "name": "_metaNodeToken",
          "type": "address"
        }
      ],
      "stateMutability": "nonpayable",
      "type": "constructor"
    },
    {
      "anonymous": false,
      "inputs": [
        {
          "indexed": true,
          "internalType": "address",
          "name": "user",
          "type": "address"
        },
        {
          "indexed": true,
          "internalType": "uint256",
          "name": "pid",
          "type": "uint256"
        },
        {
          "indexed": false,
          "internalType": "uint256",
          "name": "amount",
          "type": "uint256"
        }
      ],
      "name": "Claimed",
      "type": "event"
    },
    {
      "anonymous": false,
      "inputs": [
        {
          "indexed": true,
          "internalType": "address",
          "name": "user",
          "type": "address"
        },
        {
          "indexed": true,
          "internalType": "uint256",
          "name": "pid",
          "type": "uint256"
        },
        {
          "indexed": false,
          "internalType": "uint256",
          "name": "amount",
          "type": "uint256"
        }
      ],
      "name": "Deposited",
      "type": "event"
    },
    {
      "anonymous": false,
      "inputs": [
        {
          "indexed": true,
          "internalType": "address",
          "name": "user",
          "type": "address"
        },
        {
          "indexed": true,
          "internalType": "uint256",
          "name": "pid",
          "type": "uint256"
        },
        {
          "indexed": false,
          "internalType": "uint256",
          "name": "amount",
          "type": "uint256"
        }
      ],
      "name": "EmergencyWithdraw",
      "type": "event"
    },
    {
      "anonymous": false,
      "inputs": [
        {
          "indexed": false,
          "internalType": "uint256",
          "name": "newAmount",
          "type": "uint256"
        }
      ],
      "name": "MetaNodePerBlockUpdated",
      "type": "event"
    },
    {
      "anonymous": false,
      "inputs": [
        {
          "indexed": false,
          "internalType": "address",
          "name": "account",
          "type": "address"
        }
      ],
      "name": "Paused",
      "type": "event"
    },
    {
      "anonymous": false,
      "inputs": [
        {
          "indexed": true,
          "internalType": "uint256",
          "name": "pid",
          "type": "uint256"
        },
        {
          "indexed": false,
          "internalType": "address",
          "name": "stTokenAddress",
          "type": "address"
        },
        {
          "indexed": false,
          "internalType": "uint256",
          "name": "poolWeight",
          "type": "uint256"
        },
        {
          "indexed": false,
          "internalType": "uint256",
          "name": "minDepositAmount",
          "type": "uint256"
        },
        {
          "indexed": false,
          "internalType": "uint256",
          "name": "unstakeLockedBlocks",
          "type": "uint256"
        }
      ],
      "name": "PoolAdded",
      "type": "event"
    },
    {
      "anonymous": false,
      "inputs": [
        {
          "indexed": true,
          "internalType": "uint256",
          "name": "pid",
          "type": "uint256"
        },
        {
          "indexed": false,
          "internalType": "uint256",
          "name": "poolWeight",
          "type": "uint256"
        },
        {
          "indexed": false,
          "internalType": "uint256",
          "name": "minDepositAmount",
          "type": "uint256"
        },
        {
          "indexed": false,
          "internalType": "uint256",
          "name": "unstakeLockedBlocks",
          "type": "uint256"
        }
      ],
      "name": "PoolUpdated",
      "type": "event"
    },
    {
      "anonymous": false,
      "inputs": [
        {
          "indexed": true,
          "internalType": "address",
          "name": "user",
          "type": "address"
        },
        {
          "indexed": true,
          "internalType": "uint256",
          "name": "pid",
          "type": "uint256"
        },
        {
          "indexed": false,
          "internalType": "uint256",
          "name": "amount",
          "type": "uint256"
        }
      ],
      "name": "RewardPaid",
      "type": "event"
    },
    {
      "anonymous": false,
      "inputs": [
        {
          "indexed": true,
          "internalType": "bytes32",
          "name": "role",
          "type": "bytes32"
        },
        {
          "indexed": true,
          "internalType": "bytes32",
          "name": "previousAdminRole",
          "type": "bytes32"
        },
        {
          "indexed": true,
          "internalType": "bytes32",
          "name": "newAdminRole",
          "type": "bytes32"
        }
      ],
      "name": "RoleAdminChanged",
      "type": "event"
    },
    {
      "anonymous": false,
      "inputs": [
        {
          "indexed": true,
          "internalType": "bytes32",
          "name": "role",
          "type": "bytes32"
        },
        {
          "indexed": true,
          "internalType": "address",
          "name": "account",
          "type": "address"
        },
        {
          "indexed": true,
          "internalType": "address",
          "name": "sender",
          "type": "address"
        }
      ],
      "name": "RoleGranted",
      "type": "event"
    },
    {
      "anonymous": false,
      "inputs": [
        {
          "indexed": true,
          "internalType": "bytes32",
          "name": "role",
          "type": "bytes32"
        },
        {
          "indexed": true,
          "internalType": "address",
          "name": "account",
          "type": "address"
        },
        {
          "indexed": true,
          "internalType": "address",
          "name": "sender",
          "type": "address"
        }
      ],
      "name": "RoleRevoked",
      "type": "event"
    },
    {
      "anonymous": false,
      "inputs": [
        {
          "indexed": false,
          "internalType": "address",
          "name": "account",
          "type": "address"
        }
      ],
      "name": "Unpaused",
      "type": "event"
    },
    {
      "anonymous": false,
      "inputs": [
        {
          "indexed": true,
          "internalType": "address",
          "name": "user",
          "type": "address"
        },
        {
          "indexed": true,
          "internalType": "uint256",
          "name": "pid",
          "type": "uint256"
        },
        {
          "indexed": false,
          "internalType": "uint256",
          "name": "amount",
          "type": "uint256"
        },
        {
          "indexed": false,
          "internalType": "uint256",
          "name": "unlockBlock",
          "type": "uint256"
        }
      ],
      "name": "UnstakeRequested",
      "type": "event"
    },
    {
      "anonymous": false,
      "inputs": [
        {
          "indexed": true,
          "internalType": "address",
          "name": "user",
          "type": "address"
        },
        {
          "indexed": true,
          "internalType": "uint256",
          "name": "pid",
          "type": "uint256"
        },
        {
          "indexed": false,
          "internalType": "uint256",
          "name": "amount",
          "type": "uint256"
        }
      ],
      "name": "UnstakeWithdrawn",
      "type": "event"
    },
    {
      "anonymous": false,
      "inputs": [
        {
          "indexed": true,
          "internalType": "address",
          "name": "user",
          "type": "address"
        },
        {
          "indexed": true,
          "internalType": "uint256",
          "name": "pid",
          "type": "uint256"
        },
        {
          "indexed": false,
          "internalType": "uint256",
          "name": "amount",
          "type": "uint256"
        }
      ],
      "name": "Unstaked",
      "type": "event"
    },
    {
      "inputs": [],
      "name": "DEFAULT_ADMIN_ROLE",
      "outputs": [
        {
          "internalType": "bytes32",
          "name": "",
          "type": "bytes32"
        }
      ],
      "stateMutability": "view",
      "type": "function"
    },
    {
      "inputs": [],
      "name": "OPERATOR_ROLE",
      "outputs": [
        {
          "internalType": "bytes32",
          "name": "",
          "type": "bytes32"
        }
      ],
      "stateMutability": "view",
      "type": "function"
    },
    {
      "inputs": [],
      "name": "PAUSER_ROLE",
      "outputs": [
        {
          "internalType": "bytes32",
          "name": "",
          "type": "bytes32"
        }
      ],
      "stateMutability": "view",
      "type": "function"
    },
    {
      "inputs": [],
      "name": "UPGRADER_ROLE",
      "outputs": [
        {
          "internalType": "bytes32",
          "name": "",
          "type": "bytes32"
        }
      ],
      "stateMutability": "view",
      "type": "function"
    },
    {
      "inputs": [
        {
          "internalType": "address",
          "name": "_stTokenAddress",
          "type": "address"
        },
        {
          "internalType": "uint256",
          "name": "_poolWeight",
          "type": "uint256"
        },
        {
          "internalType": "uint256",
          "name": "_minDepositAmount",
          "type": "uint256"
        },
        {
          "internalType": "uint256",
          "name": "_unstakeLockedBlocks",
          "type": "uint256"
        }
      ],
      "name": "addPool",
      "outputs": [],
      "stateMutability": "nonpayable",
      "type": "function"
    },
    {
      "inputs": [
        {
          "internalType": "uint256",
          "name": "_pid",
          "type": "uint256"
        }
      ],
      "name": "claimReward",
      "outputs": [],
      "stateMutability": "nonpayable",
      "type": "function"
    },
    {
      "inputs": [
        {
          "internalType": "uint256",
          "name": "_pid",
          "type": "uint256"
        },
        {
          "internalType": "uint256",
          "name": "_amount",
          "type": "uint256"
        }
      ],
      "name": "deposit",
      "outputs": [],
      "stateMutability": "payable",
      "type": "function"
    },
    {
      "inputs": [
        {
          "internalType": "uint256",
          "name": "_pid",
          "type": "uint256"
        }
      ],
      "name": "emergencyWithdraw",
      "outputs": [],
      "stateMutability": "nonpayable",
      "type": "function"
    },
    {
      "inputs": [],
      "name": "getCurrentBlock",
      "outputs": [
        {
          "internalType": "uint256",
          "name": "",
          "type": "uint256"
        }
      ],
      "stateMutability": "view",
      "type": "function"
    },
    {
      "inputs": [
        {
          "internalType": "uint256",
          "name": "_pid",
          "type": "uint256"
        }
      ],
      "name": "getPoolReward",
      "outputs": [
        {
          "internalType": "uint256",
          "name": "",
          "type": "uint256"
        }
      ],
      "stateMutability": "view",
      "type": "function"
    },
    {
      "inputs": [
        {
          "internalType": "bytes32",
          "name": "role",
          "type": "bytes32"
        }
      ],
      "name": "getRoleAdmin",
      "outputs": [
        {
          "internalType": "bytes32",
          "name": "",
          "type": "bytes32"
        }
      ],
      "stateMutability": "view",
      "type": "function"
    },
    {
      "inputs": [
        {
          "internalType": "bytes32",
          "name": "role",
          "type": "bytes32"
        },
        {
          "internalType": "uint256",
          "name": "index",
          "type": "uint256"
        }
      ],
      "name": "getRoleMember",
      "outputs": [
        {
          "internalType": "address",
          "name": "",
          "type": "address"
        }
      ],
      "stateMutability": "view",
      "type": "function"
    },
    {
      "inputs": [
        {
          "internalType": "bytes32",
          "name": "role",
          "type": "bytes32"
        }
      ],
      "name": "getRoleMemberCount",
      "outputs": [
        {
          "internalType": "uint256",
          "name": "",
          "type": "uint256"
        }
      ],
      "stateMutability": "view",
      "type": "function"
    },
    {
      "inputs": [
        {
          "internalType": "uint256",
          "name": "_pid",
          "type": "uint256"
        },
        {
          "internalType": "address",
          "name": "_user",
          "type": "address"
        }
      ],
      "name": "getUnstakeRequests",
      "outputs": [
        {
          "components": [
            {
              "internalType": "uint256",
              "name": "amount",
              "type": "uint256"
            },
            {
              "internalType": "uint256",
              "name": "unlockBlock",
              "type": "uint256"
            }
          ],
          "internalType": "struct MetaNodeStake.UnstakeRequest[]",
          "name": "",
          "type": "tuple[]"
        }
      ],
      "stateMutability": "view",
      "type": "function"
    },
    {
      "inputs": [
        {
          "internalType": "uint256",
          "name": "_pid",
          "type": "uint256"
        }
      ],
      "name": "getWithdrawableAmount",
      "outputs": [
        {
          "internalType": "uint256",
          "name": "",
          "type": "uint256"
        }
      ],
      "stateMutability": "view",
      "type": "function"
    },
    {
      "inputs": [
        {
          "internalType": "bytes32",
          "name": "role",
          "type": "bytes32"
        },
        {
          "internalType": "address",
          "name": "account",
          "type": "address"
        }
      ],
      "name": "grantRole",
      "outputs": [],
      "stateMutability": "nonpayable",
      "type": "function"
    },
    {
      "inputs": [
        {
          "internalType": "bytes32",
          "name": "role",
          "type": "bytes32"
        },
        {
          "internalType": "address",
          "name": "account",
          "type": "address"
        }
      ],
      "name": "hasRole",
      "outputs": [
        {
          "internalType": "bool",
          "name": "",
          "type": "bool"
        }
      ],
      "stateMutability": "view",
      "type": "function"
    },
    {
      "inputs": [],
      "name": "massUpdatePools",
      "outputs": [],
      "stateMutability": "nonpayable",
      "type": "function"
    },
    {
      "inputs": [],
      "name": "metaNodePerBlock",
      "outputs": [
        {
          "internalType": "uint256",
          "name": "",
          "type": "uint256"
        }
      ],
      "stateMutability": "view",
      "type": "function"
    },
    {
      "inputs": [],
      "name": "metaNodeToken",
      "outputs": [
        {
          "internalType": "contract IERC20",
          "name": "",
          "type": "address"
        }
      ],
      "stateMutability": "view",
      "type": "function"
    },
    {
      "inputs": [],
      "name": "paused",
      "outputs": [
        {
          "internalType": "bool",
          "name": "",
          "type": "bool"
        }
      ],
      "stateMutability": "view",
      "type": "function"
    },
    {
      "inputs": [
        {
          "internalType": "uint256",
          "name": "_pid",
          "type": "uint256"
        },
        {
          "internalType": "address",
          "name": "_user",
          "type": "address"
        }
      ],
      "name": "pendingReward",
      "outputs": [
        {
          "internalType": "uint256",
          "name": "",
          "type": "uint256"
        }
      ],
      "stateMutability": "view",
      "type": "function"
    },
    {
      "inputs": [],
      "name": "poolCounter",
      "outputs": [
        {
          "internalType": "uint256",
          "name": "",
          "type": "uint256"
        }
      ],
      "stateMutability": "view",
      "type": "function"
    },
    {
      "inputs": [
        {
          "internalType": "uint256",
          "name": "",
          "type": "uint256"
        }
      ],
      "name": "pools",
      "outputs": [
        {
          "internalType": "address",
          "name": "stTokenAddress",
          "type": "address"
        },
        {
          "internalType": "uint256",
          "name": "poolWeight",
          "type": "uint256"
        },
        {
          "internalType": "uint256",
          "name": "lastRewardBlock",
          "type": "uint256"
        },
        {
          "internalType": "uint256",
          "name": "accMetaNodePerShare",
          "type": "uint256"
        },
        {
          "internalType": "uint256",
          "name": "totalStaked",
          "type": "uint256"
        },
        {
          "internalType": "uint256",
          "name": "minDepositAmount",
          "type": "uint256"
        },
        {
          "internalType": "uint256",
          "name": "unstakeLockedBlocks",
          "type": "uint256"
        }
      ],
      "stateMutability": "view",
      "type": "function"
    },
    {
      "inputs": [
        {
          "internalType": "bytes32",
          "name": "role",
          "type": "bytes32"
        },
        {
          "internalType": "address",
          "name": "account",
          "type": "address"
        }
      ],
      "name": "renounceRole",
      "outputs": [],
      "stateMutability": "nonpayable",
      "type": "function"
    },
    {
      "inputs": [
        {
          "internalType": "uint256",
          "name": "_pid",
          "type": "uint256"
        },
        {
          "internalType": "uint256",
          "name": "_amount",
          "type": "uint256"
        }
      ],
      "name": "requestUnstake",
      "outputs": [],
      "stateMutability": "nonpayable",
      "type": "function"
    },
    {
      "inputs": [
        {
          "internalType": "bytes32",
          "name": "role",
          "type": "bytes32"
        },
        {
          "internalType": "address",
          "name": "account",
          "type": "address"
        }
      ],
      "name": "revokeRole",
      "outputs": [],
      "stateMutability": "nonpayable",
      "type": "function"
    },
    {
      "inputs": [
        {
          "internalType": "uint256",
          "name": "_metaNodePerBlock",
          "type": "uint256"
        }
      ],
      "name": "setMetaNodePerBlock",
      "outputs": [],
      "stateMutability": "nonpayable",
      "type": "function"
    },
    {
      "inputs": [
        {
          "internalType": "bytes4",
          "name": "interfaceId",
          "type": "bytes4"
        }
      ],
      "name": "supportsInterface",
      "outputs": [
        {
          "internalType": "bool",
          "name": "",
          "type": "bool"
        }
      ],
      "stateMutability": "view",
      "type": "function"
    },
    {
      "inputs": [
        {
          "internalType": "uint256",
          "name": "",
          "type": "uint256"
        },
        {
          "internalType": "address",
          "name": "",
          "type": "address"
        },
        {
          "internalType": "uint256",
          "name": "",
          "type": "uint256"
        }
      ],
      "name": "unstakeRequests",
      "outputs": [
        {
          "internalType": "uint256",
          "name": "amount",
          "type": "uint256"
        },
        {
          "internalType": "uint256",
          "name": "unlockBlock",
          "type": "uint256"
        }
      ],
      "stateMutability": "view",
      "type": "function"
    },
    {
      "inputs": [
        {
          "internalType": "uint256",
          "name": "_pid",
          "type": "uint256"
        }
      ],
      "name": "updatePool",
      "outputs": [],
      "stateMutability": "nonpayable",
      "type": "function"
    },
    {
      "inputs": [
        {
          "internalType": "uint256",
          "name": "_pid",
          "type": "uint256"
        },
        {
          "internalType": "uint256",
          "name": "_poolWeight",
          "type": "uint256"
        },
        {
          "internalType": "uint256",
          "name": "_minDepositAmount",
          "type": "uint256"
        },
        {
          "internalType": "uint256",
          "name": "_unstakeLockedBlocks",
          "type": "uint256"
        }
      ],
      "name": "updatePoolConfig",
      "outputs": [],
      "stateMutability": "nonpayable",
      "type": "function"
    },
    {
      "inputs": [
        {
          "internalType": "uint256",
          "name": "",
          "type": "uint256"
        },
        {
          "internalType": "address",
          "name": "",
          "type": "address"
        }
      ],
      "name": "users",
      "outputs": [
        {
          "internalType": "uint256",
          "name": "stAmount",
          "type": "uint256"
        },
        {
          "internalType": "uint256",
          "name": "rewardDebt",
          "type": "uint256"
        }
      ],
      "stateMutability": "view",
      "type": "function"
    },
    {
      "inputs": [
        {
          "internalType": "uint256",
          "name": "_pid",
          "type": "uint256"
        }
      ],
      "name": "withdrawUnstaked",
      "outputs": [],
      "stateMutability": "nonpayable",
      "type": "function"
    },
    {
      "stateMutability": "payable",
      "type": "receive"
    }
  ],
  "bytecode": "0x6080604052670de0b6b3a76400006008553480156200001d57600080fd5b5060405162002bbe38038062002bbe83398101604081905262000040916200024e565b6001600255600380546001600160a81b0319166101006001600160a01b038416021790556200007160003362000101565b6200009d7f189ab7a9244df0848122154315af71fe140f3db0fe014031783b0946b8c9d2e33362000101565b620000c97f65d7a28e3265b37a6474929f336521b332c1681b933f6cb9f3376673440d862a3362000101565b620000f57f97667070c54ef182b0f5858b034beac1b6f3089aa2d3188bb1e8929f4fa9b9293362000101565b50600060075562000280565b6200010d828262000111565b5050565b6200011d82826200013c565b6000828152600160205260409020620001379082620001dc565b505050565b6000828152602081815260408083206001600160a01b038516845290915290205460ff166200010d576000828152602081815260408083206001600160a01b03851684529091529020805460ff19166001179055620001983390565b6001600160a01b0316816001600160a01b0316837f2f8788117e7eff1d82e926ec794901d17c78024a50270940304540a733656f0d60405160405180910390a45050565b6000620001f3836001600160a01b038416620001fc565b90505b92915050565b60008181526001830160205260408120546200024557508154600181810184556000848152602080822090930184905584548482528286019093526040902091909155620001f6565b506000620001f6565b6000602082840312156200026157600080fd5b81516001600160a01b03811681146200027957600080fd5b9392505050565b61292e80620002906000396000f3fe60806040526004361061021d5760003560e01c806391d148541161011d578063ca15c873116100b0578063e2bbb1581161007f578063f5b541a611610064578063f5b541a614610704578063f72c0d8b14610738578063feccaba51461076c57600080fd5b8063e2bbb158146106bd578063e63ab1e9146106d057600080fd5b8063ca15c8731461063d578063d45d2e781461065d578063d547741f1461067d578063d7bc17691461069d57600080fd5b8063ac4afa38116100ec578063ac4afa3814610508578063ae169a50146105a9578063b8bec04b146105c9578063b9d02df4146105fe57600080fd5b806391d148541461047957806398969e82146104bd5780639e3079cb146104dd578063a217fddf146104f357600080fd5b80635a4ec0ca116101b057806368d4341f1161017f578063875f438411610164578063875f438414610401578063887d3da3146104215780639010d07c1461044157600080fd5b806368d4341f146103cb5780637276d925146103eb57600080fd5b80635a4ec0ca1461036b5780635c975abb1461038b578063630b5ba1146103a3578063672d5d3b146103b857600080fd5b80632f2ff15d116101ec5780632f2ff15d146102eb57806336568abe1461030b57806351eb05a61461032b5780635312ea8e1461034b57600080fd5b806301ffc9a71461022957806308e50b291461025e5780632343d5221461028b578063248a9ca3146102ad57600080fd5b3661022457005b600080fd5b34801561023557600080fd5b5061024961024436600461257b565b610791565b60405190151581526020015b60405180910390f35b34801561026a57600080fd5b5061027e6102793660046125c1565b6107d5565b60405161025591906125ed565b34801561029757600080fd5b506102ab6102a636600461263c565b6108ad565b005b3480156102b957600080fd5b506102dd6102c836600461263c565b60009081526020819052604090206001015490565b604051908152602001610255565b3480156102f757600080fd5b506102ab6103063660046125c1565b610c05565b34801561031757600080fd5b506102ab6103263660046125c1565b610c2f565b34801561033757600080fd5b506102ab61034636600461263c565b610cb7565b34801561035757600080fd5b506102ab61036636600461263c565b610d82565b34801561037757600080fd5b506102ab610386366004612655565b610f61565b34801561039757600080fd5b5060035460ff16610249565b3480156103af57600080fd5b506102ab6110b9565b3480156103c457600080fd5b50436102dd565b3480156103d757600080fd5b506102ab6103e636600461268e565b6110e4565b3480156103f757600080fd5b506102dd60085481565b34801561040d57600080fd5b506102dd61041c36600461263c565b6113f5565b34801561042d57600080fd5b506102dd61043c36600461263c565b6114c5565b34801561044d57600080fd5b5061046161045c36600461268e565b611572565b6040516001600160a01b039091168152602001610255565b34801561048557600080fd5b506102496104943660046125c1565b6000918252602082815260408084206001600160a01b0393909316845291905290205460ff1690565b3480156104c957600080fd5b506102dd6104d83660046125c1565b611591565b3480156104e957600080fd5b506102dd60075481565b3480156104ff57600080fd5b506102dd600081565b34801561051457600080fd5b5061056a61052336600461263c565b600460208190526000918252604090912080546001820154600283015460038401549484015460058501546006909501546001600160a01b03909416959294919390919087565b604080516001600160a01b0390981688526020880196909652948601939093526060850191909152608084015260a083015260c082015260e001610255565b3480156105b557600080fd5b506102ab6105c436600461263c565b611690565b3480156105d557600080fd5b506105e96105e43660046126b0565b6118fd565b60408051928352602083019190915201610255565b34801561060a57600080fd5b506105e96106193660046125c1565b60056020908152600092835260408084209091529082529020805460019091015482565b34801561064957600080fd5b506102dd61065836600461263c565b611947565b34801561066957600080fd5b506102ab6106783660046126e5565b61195e565b34801561068957600080fd5b506102ab6106983660046125c1565b611a45565b3480156106a957600080fd5b506102ab6106b836600461263c565b611a6a565b6102ab6106cb36600461268e565b611ad0565b3480156106dc57600080fd5b506102dd7f65d7a28e3265b37a6474929f336521b332c1681b933f6cb9f3376673440d862a81565b34801561071057600080fd5b506102dd7f97667070c54ef182b0f5858b034beac1b6f3089aa2d3188bb1e8929f4fa9b92981565b34801561074457600080fd5b506102dd7f189ab7a9244df0848122154315af71fe140f3db0fe014031783b0946b8c9d2e381565b34801561077857600080fd5b506003546104619061010090046001600160a01b031681565b60006001600160e01b031982167f5a05180f0000000000000000000000000000000000000000000000000000000014806107cf57506107cf82611ebb565b92915050565b60608260075481106108205760405162461bcd60e51b815260206004820152600f60248201526e125b9d985b1a59081c1bdbdb081251608a1b60448201526064015b60405180910390fd5b60008481526006602090815260408083206001600160a01b0387168452825280832080548251818502810185019093528083529193909284015b828210156108a05783829060005260206000209060020201604051806040016040529081600082015481526020016001820154815250508152602001906001019061085a565b5050505091505092915050565b8060075481106108f15760405162461bcd60e51b815260206004820152600f60248201526e125b9d985b1a59081c1bdbdb081251608a1b6044820152606401610817565b6108f9611f22565b610901611f77565b6000828152600660209081526040808320338452909152902080546109685760405162461bcd60e51b815260206004820152601360248201527f4e6f20756e7374616b65207265717565737473000000000000000000000000006044820152606401610817565b61097183610cb7565b6000805b8254811015610aa65782818154811061099057610990612717565b9060005260206000209060020201600101546109a94390565b10610a94576109db8382815481106109c3576109c3612717565b60009182526020909120600290910201548390611fce565b9150805b83546109ed90600190612743565b811015610a605783610a00826001612756565b81548110610a1057610a10612717565b9060005260206000209060020201848281548110610a3057610a30612717565b60009182526020909120825460029092020190815560019182015491015580610a5881612769565b9150506109df565b5082805480610a7157610a71612782565b600082815260208120600260001990930192830201818155600101559055610975565b80610a9e81612769565b915050610975565b60008211610af65760405162461bcd60e51b815260206004820152601f60248201527f4e6f20756e6c6f636b656420616d6f756e747320746f207769746864726177006044820152606401610817565b600085815260046020526040902080546001600160a01b0316610b4657604051339084156108fc029085906000818181858888f19350505050158015610b40573d6000803e3d6000fd5b50610bbc565b805460405163a9059cbb60e01b8152336004820152602481018590526001600160a01b039091169063a9059cbb906044016020604051808303816000875af1158015610b96573d6000803e3d6000fd5b505050506040513d601f19601f82011682018060405250810190610bba9190612798565b505b604051838152869033907f74ceb61701d382a6998d20d12f85b511b4ad9739d4e58fd9e0ef99068d6c7a729060200160405180910390a350505050610c016001600255565b5050565b600082815260208190526040902060010154610c2081611fda565b610c2a8383611fe4565b505050565b6001600160a01b0381163314610cad5760405162461bcd60e51b815260206004820152602f60248201527f416363657373436f6e74726f6c3a2063616e206f6e6c792072656e6f756e636560448201527f20726f6c657320666f722073656c6600000000000000000000000000000000006064820152608401610817565b610c018282612006565b806007548110610cfb5760405162461bcd60e51b815260206004820152600f60248201526e125b9d985b1a59081c1bdbdb081251608a1b6044820152606401610817565b600082815260046020526040902060028101544311610d1957505050565b8060040154600003610d3057436002909101555050565b6000610d3b846114c5565b90508015610d76576004820154610d7090610d6590610d5f8464e8d4a51000612028565b90612034565b600384015490611fce565b60038301555b50436002909101555050565b806007548110610dc65760405162461bcd60e51b815260206004820152600f60248201526e125b9d985b1a59081c1bdbdb081251608a1b6044820152606401610817565b610dce611f22565b610dd6611f77565b6000828152600460209081526040808320600583528184203385529092529091208054610e455760405162461bcd60e51b815260206004820152601060248201527f4e6f207374616b656420616d6f756e74000000000000000000000000000000006044820152606401610817565b8054600080835560018301556004830154610e609082612040565b600484015582546001600160a01b0316610ea757604051339082156108fc029083906000818181858888f19350505050158015610ea1573d6000803e3d6000fd5b50610f1d565b825460405163a9059cbb60e01b8152336004820152602481018390526001600160a01b039091169063a9059cbb906044016020604051808303816000875af1158015610ef7573d6000803e3d6000fd5b505050506040513d601f19601f82011682018060405250810190610f1b9190612798565b505b604051818152859033907fbb757047c2b5f3974fe26b7c10f732e7bce710b0952a71082702781e62ae05959060200160405180910390a3505050610c016001600255565b7f97667070c54ef182b0f5858b034beac1b6f3089aa2d3188bb1e8929f4fa9b929610f8b81611fda565b6040518060e00160405280866001600160a01b03168152602001858152602001610fb24390565b815260006020808301829052604080840183905260608085018990526080948501889052600780548552600480855294839020875181547fffffffffffffffffffffffff0000000000000000000000000000000000000000166001600160a01b03918216178255888601516001830155888501516002830155888401516003830155888801519682019690965560a0880151600582015560c09097015160069097019690965594548151938b16845291830189905282018790529281018590527fdcad60f82308d160bd8a3814cf84788a2c98294718485b86d238d14cbf166dab910160405180910390a2600780549060006110ad83612769565b91905055505050505050565b60005b6007548110156110e1576110cf81610cb7565b806110d981612769565b9150506110bc565b50565b8160075481106111285760405162461bcd60e51b815260206004820152600f60248201526e125b9d985b1a59081c1bdbdb081251608a1b6044820152606401610817565b611130611f22565b611138611f77565b600083815260046020908152604080832060058352818420338552909252909120836111a65760405162461bcd60e51b815260206004820152601d60248201527f416d6f756e74206d7573742062652067726561746572207468616e20300000006044820152606401610817565b80548411156111f75760405162461bcd60e51b815260206004820152601a60248201527f496e73756666696369656e74207374616b656420616d6f756e740000000000006044820152606401610817565b61120085610cb7565b60018101546000868152600460205260408120600301548354919261123c9290916112369164e8d4a5100091610d5f9190612028565b90612040565b905080156112f65760035460405163a9059cbb60e01b8152336004820152602481018390526101009091046001600160a01b03169063a9059cbb906044016020604051808303816000875af1158015611299573d6000803e3d6000fd5b505050506040513d601f19601f820116820180604052508101906112bd9190612798565b50604051818152869033907fd6f2c8500df5b44f11e9e48b91ff9f1b9d81bc496d55570c2b1b75bf65243f519060200160405180910390a35b81546113029086612040565b825560048301546113139086612040565b6004808501919091556000878152602091909152604090206003015482546113459164e8d4a5100091610d5f91612028565b6001830155600683015460009061135d904390611fce565b600088815260066020908152604080832033808552908352818420825180840184528c815280850187815282546001808201855593885296869020915160029097029091019586555194019390935580518a815291820184905292935089927f6930caaa0f0843978bf16992d58b9fd54913ce2e45b8acdd34f5b44f95419db2910160405180910390a350505050610c2a6001600255565b600081600754811061143b5760405162461bcd60e51b815260206004820152600f60248201526e125b9d985b1a59081c1bdbdb081251608a1b6044820152606401610817565b6000838152600660209081526040808320338452909152812090805b82548110156114ba5782818154811061147257611472612717565b90600052602060002090600202016001015461148b4390565b106114a8576114a58382815481106109c3576109c3612717565b91505b806114b281612769565b915050611457565b509250505b50919050565b600081600754811061150b5760405162461bcd60e51b815260206004820152600f60248201526e125b9d985b1a59081c1bdbdb081251608a1b6044820152606401610817565b6000838152600460205260408120600281015490919061152b9043611236565b905080600003611540576000935050506114bf565b6115696103e8610d5f84600101546115636008548661202890919063ffffffff16565b90612028565b95945050505050565b600082815260016020526040812061158a908361204c565b9392505050565b60008260075481106115d75760405162461bcd60e51b815260206004820152600f60248201526e125b9d985b1a59081c1bdbdb081251608a1b6044820152606401610817565b6000848152600460209081526040808320600583528184206001600160a01b0388168552909252909120600382015460028301544311801561161d575060008360040154115b1561165d57600061162d886114c5565b9050801561165b5760048401546116589061165190610d5f8464e8d4a51000612028565b8390611fce565b91505b505b611685826001015461123664e8d4a51000610d5f85876000015461202890919063ffffffff16565b979650505050505050565b8060075481106116d45760405162461bcd60e51b815260206004820152600f60248201526e125b9d985b1a59081c1bdbdb081251608a1b6044820152606401610817565b6116dc611f22565b6116e4611f77565b60008281526005602090815260408083203384529091529020805461174b5760405162461bcd60e51b815260206004820152601060248201527f4e6f207374616b656420616d6f756e74000000000000000000000000000000006044820152606401610817565b61175483610cb7565b60018101546000848152600460205260408120600301548354919261178a9290916112369164e8d4a5100091610d5f9190612028565b9050600081116117dc5760405162461bcd60e51b815260206004820152601260248201527f4e6f2070656e64696e67207265776172647300000000000000000000000000006044820152606401610817565b60035460405163a9059cbb60e01b8152336004820152602481018390526101009091046001600160a01b03169063a9059cbb906044016020604051808303816000875af1158015611831573d6000803e3d6000fd5b505050506040513d601f19601f820116820180604052508101906118559190612798565b50600084815260046020526040902060030154825461187e9164e8d4a5100091610d5f91612028565b6001830155604051818152849033907f987d620f307ff6b94d58743cb7a7509f24071586a77759b77c2d4e29f75a2f9a9060200160405180910390a3604051818152849033907fd6f2c8500df5b44f11e9e48b91ff9f1b9d81bc496d55570c2b1b75bf65243f519060200160405180910390a35050610c016001600255565b6006602052826000526040600020602052816000526040600020818154811061192557600080fd5b6000918252602090912060029091020180546001909101549093509150839050565b60008181526001602052604081206107cf90612058565b7f97667070c54ef182b0f5858b034beac1b6f3089aa2d3188bb1e8929f4fa9b92961198881611fda565b8460075481106119cc5760405162461bcd60e51b815260206004820152600f60248201526e125b9d985b1a59081c1bdbdb081251608a1b6044820152606401610817565b6119d586610cb7565b600086815260046020908152604091829020600181018890556005810187905560068101869055825188815291820187905291810185905287907fb0a2ded49817748754bcca0474b24011f01d4574dd5c40e14197ffa2e6540fef9060600160405180910390a250505050505050565b600082815260208190526040902060010154611a6081611fda565b610c2a8383612006565b7f97667070c54ef182b0f5858b034beac1b6f3089aa2d3188bb1e8929f4fa9b929611a9481611fda565b60088290556040518281527f48619a33f9af1501ef8ca56792457f78cbdc62548302ca99a932682c5c64f4669060200160405180910390a15050565b816007548110611b145760405162461bcd60e51b815260206004820152600f60248201526e125b9d985b1a59081c1bdbdb081251608a1b6044820152606401610817565b611b1c611f22565b611b24611f77565b60008381526004602090815260408083206005808452828520338652909352922090820154841015611bbe5760405162461bcd60e51b815260206004820152602f60248201527f416d6f756e74206973206c657373207468616e206d696e696d756d206465706f60448201527f73697420726571756972656d656e7400000000000000000000000000000000006064820152608401610817565b611bc785610cb7565b600181015460008681526004602052604081206003015483549192611bfd9290916112369164e8d4a5100091610d5f9190612028565b90508015611cb75760035460405163a9059cbb60e01b8152336004820152602481018390526101009091046001600160a01b03169063a9059cbb906044016020604051808303816000875af1158015611c5a573d6000803e3d6000fd5b505050506040513d601f19601f82011682018060405250810190611c7e9190612798565b50604051818152869033907fd6f2c8500df5b44f11e9e48b91ff9f1b9d81bc496d55570c2b1b75bf65243f519060200160405180910390a35b82546001600160a01b0316611d1a57843414611d155760405162461bcd60e51b815260206004820152601960248201527f496e636f72726563742045544820616d6f756e742073656e74000000000000006044820152606401610817565b611e23565b3415611d8e5760405162461bcd60e51b815260206004820152602760248201527f4e6f204554482073686f756c642062652073656e7420666f722045524332302060448201527f7374616b696e67000000000000000000000000000000000000000000000000006064820152608401610817565b82546040517f23b872dd000000000000000000000000000000000000000000000000000000008152336004820152306024820152604481018790526001600160a01b03909116906323b872dd906064016020604051808303816000875af1158015611dfd573d6000803e3d6000fd5b505050506040513d601f19601f82011682018060405250810190611e219190612798565b505b8154611e2f9086611fce565b82556004830154611e409086611fce565b600480850191909155600087815260209190915260409020600301548254611e729164e8d4a5100091610d5f91612028565b6001830155604051858152869033907f73a19dd210f1a7f902193214c0ee91dd35ee5b4d920cba8d519eca65a7b488ca9060200160405180910390a3505050610c2a6001600255565b60006001600160e01b031982167f7965db0b0000000000000000000000000000000000000000000000000000000014806107cf57507f01ffc9a7000000000000000000000000000000000000000000000000000000006001600160e01b03198316146107cf565b60035460ff1615611f755760405162461bcd60e51b815260206004820152601060248201527f5061757361626c653a20706175736564000000000000000000000000000000006044820152606401610817565b565b6002805403611fc85760405162461bcd60e51b815260206004820152601f60248201527f5265656e7472616e637947756172643a207265656e7472616e742063616c6c006044820152606401610817565b60028055565b600061158a8284612756565b6110e18133612062565b611fee82826120d5565b6000828152600160205260409020610c2a9082612173565b6120108282612188565b6000828152600160205260409020610c2a9082612207565b600061158a82846127ba565b600061158a82846127d1565b600061158a8284612743565b600061158a838361221c565b60006107cf825490565b6000828152602081815260408083206001600160a01b038516845290915290205460ff16610c015761209381612246565b61209e836020612258565b6040516020016120af929190612817565b60408051601f198184030181529082905262461bcd60e51b825261081791600401612898565b6000828152602081815260408083206001600160a01b038516845290915290205460ff16610c01576000828152602081815260408083206001600160a01b03851684529091529020805460ff1916600117905561212f3390565b6001600160a01b0316816001600160a01b0316837f2f8788117e7eff1d82e926ec794901d17c78024a50270940304540a733656f0d60405160405180910390a45050565b600061158a836001600160a01b038416612439565b6000828152602081815260408083206001600160a01b038516845290915290205460ff1615610c01576000828152602081815260408083206001600160a01b0385168085529252808320805460ff1916905551339285917ff6391f5c32d9c69d2a47ea670b442974b53935d1edc7fd64eb21e047a839171b9190a45050565b600061158a836001600160a01b038416612488565b600082600001828154811061223357612233612717565b9060005260206000200154905092915050565b60606107cf6001600160a01b03831660145b606060006122678360026127ba565b612272906002612756565b67ffffffffffffffff81111561228a5761228a6128cb565b6040519080825280601f01601f1916602001820160405280156122b4576020820181803683370190505b5090507f3000000000000000000000000000000000000000000000000000000000000000816000815181106122eb576122eb612717565b60200101906001600160f81b031916908160001a9053507f78000000000000000000000000000000000000000000000000000000000000008160018151811061233657612336612717565b60200101906001600160f81b031916908160001a905350600061235a8460026127ba565b612365906001612756565b90505b60018111156123ea577f303132333435363738396162636465660000000000000000000000000000000085600f16601081106123a6576123a6612717565b1a60f81b8282815181106123bc576123bc612717565b60200101906001600160f81b031916908160001a90535060049490941c936123e3816128e1565b9050612368565b50831561158a5760405162461bcd60e51b815260206004820181905260248201527f537472696e67733a20686578206c656e67746820696e73756666696369656e746044820152606401610817565b6000818152600183016020526040812054612480575081546001818101845560008481526020808220909301849055845484825282860190935260409020919091556107cf565b5060006107cf565b600081815260018301602052604081205480156125715760006124ac600183612743565b85549091506000906124c090600190612743565b90508181146125255760008660000182815481106124e0576124e0612717565b906000526020600020015490508087600001848154811061250357612503612717565b6000918252602080832090910192909255918252600188019052604090208390555b855486908061253657612536612782565b6001900381819060005260206000200160009055905585600101600086815260200190815260200160002060009055600193505050506107cf565b60009150506107cf565b60006020828403121561258d57600080fd5b81356001600160e01b03198116811461158a57600080fd5b80356001600160a01b03811681146125bc57600080fd5b919050565b600080604083850312156125d457600080fd5b823591506125e4602084016125a5565b90509250929050565b602080825282518282018190526000919060409081850190868401855b8281101561262f5781518051855286015186850152928401929085019060010161260a565b5091979650505050505050565b60006020828403121561264e57600080fd5b5035919050565b6000806000806080858703121561266b57600080fd5b612674856125a5565b966020860135965060408601359560600135945092505050565b600080604083850312156126a157600080fd5b50508035926020909101359150565b6000806000606084860312156126c557600080fd5b833592506126d5602085016125a5565b9150604084013590509250925092565b600080600080608085870312156126fb57600080fd5b5050823594602084013594506040840135936060013592509050565b634e487b7160e01b600052603260045260246000fd5b634e487b7160e01b600052601160045260246000fd5b818103818111156107cf576107cf61272d565b808201808211156107cf576107cf61272d565b60006001820161277b5761277b61272d565b5060010190565b634e487b7160e01b600052603160045260246000fd5b6000602082840312156127aa57600080fd5b8151801515811461158a57600080fd5b80820281158282048414176107cf576107cf61272d565b6000826127ee57634e487b7160e01b600052601260045260246000fd5b500490565b60005b8381101561280e5781810151838201526020016127f6565b50506000910152565b7f416363657373436f6e74726f6c3a206163636f756e742000000000000000000081526000835161284f8160178501602088016127f3565b7f206973206d697373696e6720726f6c6520000000000000000000000000000000601791840191820152835161288c8160288401602088016127f3565b01602801949350505050565b60208152600082518060208401526128b78160408501602087016127f3565b601f01601f19169190910160400192915050565b634e487b7160e01b600052604160045260246000fd5b6000816128f0576128f061272d565b50600019019056fea264697066735822122097348103fe4320003659915ee9b4c8026fb7f7b93d93557662673052233d613864736f6c63430008130033",
  "linkReferences": {},
  "deployedLinkReferences": {}
}